:020000040800F2
:10000000A84200243D0300082F2F00086D2C000893
:100010002D2F00087D0700081D3C0008000000008F
:100020000000000000000000000000005533000840
:100030000908000800000000312F000857330008AD
:100040005B0300085B0300085B0300085B03000818
:100050005B0300085B0300085B0300085B03000808
:100060005B0300085B0300085B0300085B030008F8
:100070005B0300085B0300085B0300085B030008E8
:100080005B0300085B0300085B0300085B030008D8
:100090005B0300085B0300085B0300085B030008C8
:1000A0005B0300085B0300085B0300085B030008B8
:1000B0005B0300085B0300085B0300085B030008A8
:1000C0005B0300085B0300085B0300085B03000898
:1000D0005B0300085B0300085B0300085B03000888
:1000E0005B0300085B030008000000005B030008DE
:1000F0005B0300085B0300085B0300085B03000868
:100100005B0300085B0300085B0300085B03000857
:100110005B0300085B030008F93400085B03000878
:100120005B0300085B0300085B0300085B03000837
:100130005B0300085B0300085B0300085B03000827
:1001400000000000000000000000000000000000AF
:100150005B0300085B0300085B0300085B03000807
:100160005B0300085B0300085B0300085B030008F7
:100170005B0300085B0300085B0300085B030008E7
:100180005B0300085B0300085B0300085B030008D7
:100190005B0300085B0300085B0300085B030008C7
:1001A0005B0300085B0300085B0300085B030008B7
:1001B0005B0300085B0300085B0300085B030008A7
:1001C0005B0300085B0300085B0300085B03000897
:1001D0005B0300085B0300085B0300085B03000887
:1001E0005B0300085B0300085B0300085B03000877
:1001F0005B0300085B0300085B0300085B03000867
:100200005B0300085B0300085B0300085B03000856
:100210005B0300085B0300085B0300085B03000846
:100220005B0300085B0300085B030008000000009C
:100230005B0300085B030008000000005B0300088C
:100240005B0300085B0300085B0300085B03000816
:100250005B0300085B0300085B0300085B03000806
:100260005B0300085B0300085B0300085B030008F6
:100270005B0300085B0300085B030008000000004C
:100280005B0300085B0300085B030008000000003C
:10029000000000005B03000800F002F800F03EF8E8
:1002A0000AA090E8000C82448344AAF10107DA45D1
:1002B00001D100F033F8AFF2090EBAE80F0013F0E5
:1002C000010F18BFFB1A43F001031847E43A00007E
:1002D000043B0000103A24BF78C878C1FAD852070E
:1002E00024BF30C830C144BF04680C6070470000B0
:1002F0000023002400250026103A28BF78C1FBD82F
:10030000520728BF30C148BF0B60704700207047BC
:100310001FB503F023FD1FBD10B510BD00F0D4F9CB
:100320001146FFF7F5FF03F0A1FC00F0F2F903B46A
:10033000FFF7F2FF03BC03F08AFC00000A48804785
:100340000A4880470A480047FEE7FEE7FEE7FEE767
:10035000FEE7FEE7FEE7FEE7FEE7FEE705480649A3
:10036000064A074B704700001108000801340008D6
:1003700099020008A8020024A8420024A822002410
:10038000A8220024704753EA020C00F069802DE98E
:10039000F04B4FF00006002B1FBFB3FA83F503FAB2
:1003A00005F424FA05F65E4012BF1643B2FA82F550
:1003B00002FA05F4C5F120051EBF22FA05FC44EA45
:1003C0000C04203556EA044C4FEA144418BF641C50
:1003D0004FF000084FF00009904271EB030C39D345
:1003E000002919BFB1FA81F701FA07F6B0FA80F7D0
:1003F00000FA07F6C7F120071EBF20FA07FC46EAFD
:100400000C062037B6FBF4FCA7EB0507103F07F0FE
:100410001F0BCBF120060CFA0BFB2CFA06F644BF9F
:10042000B3460026202FA4BF5E464FF0000B5BEAC8
:10043000060C08BF4FF0010B19EB0B09ABFB027C5C
:1004400048EB0608C01B06FB02CC0BFB03CC71EB90
:100450000C01C1E70B46024641464846BDE8F08B19
:1004600013B54FF000004FF00001AFF30080BDE87E
:100470001C4070470FB4044910B503AA029800F05D
:1004800049F810BC5DF814FB000000244FF0000296
:1004900000B5134694469646203922BFA0E80C507A
:1004A000A0E80C50B1F12001BFF4F7AF090728BF55
:1004B000A0E80C5048BF0CC05DF804EB890028BFD1
:1004C00040F8042B08BF704748BF20F8022B11F0FA
:1004D000804F18BF00F8012B704770477047704776
:1004E0007047000001694A1C02610878704700B536
:1004F0008FB0CDE901310021059105497944CDE95D
:1005000003101146684600F017F80FB000BD000058
:10051000E5FFFFFF074B70B50D467B44FFF7E7FF94
:100520000446284600F0CCF810B14FF0FF3070BD03
:10053000204670BD333700002DE9F05F8946044640
:100540004FF0000ADFF874B1FB44C0F820A0204649
:10055000E1688847002874D0252806D0D4E9012115
:100560009047206A401C2062F1E700265F46204643
:10057000E16888472028054607DB312D05D2781928
:1005800010F8200C08B10643F1E7B00701D526F0BA
:100590000406C4F81CA00027C4F818A02A2D09D00E
:1005A000284603F04DFB38B304EB8708303DC8F80C
:1005B000185019E059F8041B204604EB870291619A
:1005C000E1688847012F054618D1E069002820DA44
:1005D00026F020061DE0D8F8180000EB800005EB9F
:1005E00040003038C8F818002046E16888470546C2
:1005F00003F026FB0028EED1012F0AD02E2D08D1C2
:100600002046E16888477F1C0546022F46F02006F9
:10061000C4DBA069002803DA404246F00106A0616D
:10062000F00701D026F010066C2D0BD0682D09D0F4
:100630004C2D39D06A2D35D0742D35D07A2D33D04C
:1006400016E038E0E1682F4620468847B842054664
:1006500009D16C2F26D04FF48060E1680643204614
:100660008847054604E06C2F1AD04FF4807006438B
:100670000DB3A5F14100192802D8203546F40066D3
:100680004A462946204626604E46FFF73FFE80B187
:1006900001280BD0F61D26F0070000F1080956E7E7
:1006A0004020E4E78020D8E70020D6E706F10409DF
:1006B0004DE7284652E7206ABDE8F09F5238000017
:1006C000007B00F080007047754600F02BF8AE46C6
:1006D00005006946534620F00700854618B020B54E
:1006E000FFF73CFEBDE820404FF000064FF000074A
:1006F0004FF000084FF0000B21F00701AC46ACE8CA
:10070000C009ACE8C009ACE8C009ACE8C0098D4636
:10071000704710B50446AFF300802046BDE8104096
:10072000FFF705BE004870474402002470B590B042
:1007300038216846FFF7AAFE00200F904FF4807121
:1007400008904FF440640E904A010B900C900626DE
:100750000392EB23CDE906140596A5030D900EAA8E
:10076000054869460995009300F020FB08B100F0A8
:100770004CF810B0002070BD18000024FEE7000007
:100780001F4B0020F0B51968890311D4BFF34F8FB8
:10079000BFF36F8F1B490860BFF34F8FBFF36F8F9D
:1007A000196841F400311960BFF34F8FBFF36F8FA9
:1007B0001968C90323D4124970310860BFF34F8F01
:1007C000081F43F6FF7400680E4D1035C0F34E311C
:1007D000C0F3C90204EA4116104600BF46EA80771A
:1007E0002F60401EFAD2491EF4D2BFF34F8F186813
:1007F00040F480301860BFF34F8FBFF36F8FF0BDB0
:1008000014ED00E050EF00E0704772B6FEE7000024
:10081000054805490839026842F00202026008688A
:100820008004FCD5704700000C4802582DE9F84FB1
:1008300003247D4D00234FF001094FF0B04B4FF0E2
:100840000F0AE9E009FA03F73A4076D00E7906F08C
:100850000306012E01D0022E18D1D0F808C04FEAAD
:10086000430ECE6804FA0EF82CEA080C06FA0EF6CF
:1008700046EA0C068660D0F804C00E792CEA070C14
:10088000C6F300169E4046EA0C0646600E79F64313
:10089000B6070BD0C6684FEA43088F6804FA08FC15
:1008A00026EA0C0607FA08F73743C7600E7906F008
:1008B0000306022E12D1DE080F694FEA437C00EBDB
:1008C0008606B646366A4FEADC6C0AFA0CF807FA76
:1008D0000CF726EA08063743CEF820700F79066831
:1008E0004FEA430807F0030704FA08FC07FA08F781
:1008F00026EA0C06374307604E6816F4403F1CD0CA
:100900004A4E376847F00207376036689F0706F09F
:100910000206009623F0030606F1B046B6463F0FE6
:10092000D6F80864DFF808810AFA07FC404526EA91
:100930000C0603D14FF0000C41E06CE0DFF8F4C08E
:10094000604502D14FF0010C39E0DFF8ECC06045A2
:1009500002D14FF0020C32E0DFF8E0C0604502D176
:100960004FF0030C2BE0DFF8D8C0604502D14FF008
:10097000040C24E0DFF8CCC0604502D14FF0050C38
:100980001DE0DFF8C4C0604502D14FF0060C16E050
:10099000DFF8B8C0604502D14FF0070C0FE0DFF878
:1009A000B0C0604502D14FF0080C08E0DFF8A4C0E9
:1009B000604502D14FF0090C01E04FF00A0C0CFA2F
:1009C00007FC4CEA060CCEF808C44F68DBF8006060
:1009D000FF0226EA020600D516435F46CBF8006008
:1009E000D1F804C0DBF804605FEA8C2C26EA02062A
:1009F00000D516437E606E684F6826EA0206BF0384
:100A000000D516436E602E684F6826EA0206FF0383
:100A100000D516432E605B1C0A6832FA03F67FF499
:100A200011AFBDE8F88F000080000058F444025870
:100A3000000002580004025800080258000C025836
:100A4000001002580014025800180258001C0258E6
:100A500000200258002402580AB18161704709043D
:100A6000FBE7000001480068000C70470010005CC4
:100A70000148806870470000040000240248816833
:100A8000027811448160704704000024032010B5EF
:100A900000F0FAF801F004FB0F4A104914681368DB
:100AA000C4F3032203F00F038A5CC95C02F01F0247
:100AB00001F01F01D0400A4A20FA01F111600949F2
:100AC00008600F2000F010F808B1012010BD00F000
:100AD0009FF8002010BD0000184402588E3D000809
:100AE000140000241000002410B5102804468AB019
:100AF0002CD200220146362000F0A6F8362000F065
:100B000095F8174804601748016841F0100101602A
:100B1000006809A900F010000890684601F04CFA3E
:100B20000598B0B101F098FA40000F4900220F4C2F
:100B3000B0FBF1F10E4840F2E7330460C0E9033244
:100B4000491EC0E9011201F016FE28B101200AB0C9
:100B500010BD01F081FAE8E7054801F03FFEF6E735
:100B600008000024E844025840420F0000100040F2
:100B7000F8010024154BF0B5083B427813491A6080
:100B80000B680A1F23F001030B6043681360057BA9
:100B9000C67A827A437B2D07847B45EA0665C77B4C
:100BA00090F809C0067A90F800E045EAC24040EAB1
:100BB000834040EA444040EA074040EA0C2040EAD3
:100BC000460040EA0E000860F0BD0000A0ED00E025
:100BD000BFF35F8F044800210368034A23F4803386
:100BE000036070321160704724ED00E0074A40F066
:100BF0000100064970321060086840F480300860D7
:100C0000BFF34F8FBFF36F8F7047000024ED00E0FC
:100C1000054808B5016841F002010160006800F074
:100C20000200009008BD0000F4440258002809DBCF
:100C3000410900F01F028900012001F1E0219040EC
:100C4000C1F80001704700000E4BF0B41B680D4660
:100C5000C3F30223C3F10706042E00D90426191D8D
:100C6000072901D2002300E0DB1E012404FA06F16B
:100C70009C40491E2940641E994014402143F0BC09
:100C800002F0CDBF0CED00E0064900F0070210B500
:100C90004FF6FF040868044B204040EA0220184346
:100CA000086010BD0CED00E00000FA05134970B5B6
:100CB0000A68D243520705D5096801F0070181424D
:100CC00013D118E00A6822F0070202430A60FFF716
:100CD000CFFE0A4D4FF47A760446083D07E000BF88
:100CE000FFF7C6FE001BB04201D9012070BD286885
:100CF000C0438004F4D4002070BD00000C480258AA
:100D0000F8B50446FFF7B4FE05461CB194F841005F
:100D100010B107E00120F8BD204600F08DF841F247
:100D20008830A06420686FF0FF02A168036802EBBE
:100D3000012223F4F85111430160A06C002220210C
:100D40002B460090204602F0C0F90028E3D122682B
:100D5000D4E907352679E168176845EA0665DFF8C2
:100D600044C01943104B29430025012607EA0C070C
:100D7000394311602268D4E90517B4F810C0D2F8DD
:100D800004E039430EEA030E4EEA0C431943516066
:100D900021680A6842F001020A60656484F84160D3
:100DA000F8BD00002FFFFF00FEF8E0FF2DE9F8433B
:100DB000164688460446FFF75BFE034694F840005B
:100DC00001280ED0012084F84000002794F841004B
:100DD000012808D05FF0020584F840702846BDE87D
:100DE000F8830220FBE7A06C8221676484F841103D
:100DF000002220210090204602F067F90500EBD187
:100E000020687268016821F0080111430160706870
:100E100008280AD122681021306810632068C16058
:100E20002068016841F4801101604FF04062414642
:100E3000204602F07EF8CFE7F0B5B7B004461421A3
:100E400030A8FFF723FBC0216846FFF71FFB2C49A2
:100E50002068884251D1002013904FF00071044661
:100E6000CDE90010684600F0ABF908B1FFF7CDFC02
:100E70002448016841F480410160006800F480402A
:100E8000359020480C30016841F004010160016890
:100E900001F004013591016841F020010160016811
:100EA00001F020013591016841F002010160006804
:100EB0000225032600F002003590700232AACDE927
:100EC00030050927104882E8D00030A9FFF7AEFCB2
:100ED000C02032AACDE930050C4830A982E8D00004
:100EE000FFF7A4FC32AA40F20440CDE930050848DF
:100EF00030A982E8D000FFF799FC37B0F0BD0000C0
:100F000000500052D44402580008025800140258FD
:100F10000004025810B501F07DF805490968054A3A
:100F2000C1F30211515C01F01F01C84010BD000067
:100F3000204402588E3D0008494930B5484C0B1DED
:100F40000A68143409681D68246802F00303C5F3B5
:100F50000012C1F30531C4F3CC04002914FB02F2E2
:100F600000EE102AF8EE400A75D03F4A9FED3D1A78
:100F7000B7EE000A6BB1DFED3D1A012B01D0022B59
:100F800064D002EE101A1168F8EE422A81EEA22A0D
:100F900021E0334C283C23689B0612D5344B24684F
:100FA00001EE901A1168C4F3C104F8EE612AE3401F
:100FB00001EE903AC1F30801F8EE611A81EEA22A1F
:100FC0000BE001EE901ADFED2B2A00BFF8EE611A5C
:100FD000116882EEA12AC1F3080101EE901A11688E
:100FE000F8EE611A40EE811A71EE800A62EE200A74
:100FF000C1F3462101EE101AB8EE411A31EE001A83
:10100000C0EE811ABCEEE11A80ED001A1168C1F33E
:10101000064101EE101AB8EE411A31EE001AC0EE88
:10102000811ABCEEE11A80ED011A1168C1F3066164
:1010300001EE101AB8EE411A31EE000A80EE801A65
:10104000BCEEC10A80ED020A30BD04E001EE901A48
:10105000DFED092ABAE70021016041608160F3E712
:101060002844025800000039384402580024744AC9
:101070000090D0030024744C20BCBE4B494930B5CD
:10108000484C0B1D0A681C3409681D68246802F06E
:101090000303C5F30022C1F30551C4F3CC040029B6
:1010A00014FB02F200EE102AF8EE400A75D03F4A17
:1010B0009FED3D1AB7EE000A6BB1DFED3D1A012B33
:1010C00001D0022B64D002EE101A1168F8EE422A09
:1010D00081EEA22A21E0334C283C23689B0612D5DE
:1010E000344B246801EE901A1168C4F3C104F8EE81
:1010F000612AE34001EE903AC1F30801F8EE611A6B
:1011000081EEA22A0BE001EE901ADFED2B2A00BF40
:10111000F8EE611A116882EEA12AC1F3080101EE0E
:10112000901A1168F8EE611A40EE811A71EE800A89
:1011300062EE200AC1F3462101EE101AB8EE411A00
:1011400031EE001AC0EE811ABCEEE11A80ED001AF1
:101150001168C1F3064101EE101AB8EE411A31EEE2
:10116000001AC0EE811ABCEEE11A80ED011A116876
:10117000C1F3066101EE101AB8EE411A31EE000A11
:1011800080EE801ABCEEC10A80ED020A30BD04E098
:1011900001EE901ADFED092ABAE7002101604160F3
:1011A0008160F3E7284402580000003940440258A7
:1011B0000024744A0090D0030024744C20BCBE4B21
:1011C0002DE9FE4F0546DFF8E48350F8081B0024A4
:1011D000F64FC943019005F12800264608F124087E
:1011E000009008011DD4A86E50B1B0F5801F0CD03E
:1011F000B0F5001F0ED0B0F5401F1ED001240FE047
:10120000386840F40030386017E00198022101F09E
:1012100081FF03E00098022102F00CF804000CD0DA
:1012200026462888C043C00523D4A86D05281ED2B1
:10123000DFE800F00C11161B1B00AA6ED8F8001096
:1012400021F440111143C8F80010EAE7386840F46F
:101250000030386009E00198002101F05BFF03E0F5
:101260000098002101F0E6FF044674B100E001247B
:1012700026462888C043800528D4E86D80281ED0E3
:101280000CDC90B140280ED114E0AA6DD8F8001003
:1012900021F007011143C8F80010EAE7C02813D075
:1012A000B0F5807F10D001240FE0386840F40030A2
:1012B000386009E00198002101F02CFF03E000985C
:1012C000002101F0B7FF04469CB126462888DFF8CC
:1012D000DC92C04309F12C0940052CD4D5F8A800B4
:1012E000B0F5800F20D00DDCA0B1B0F5001F0FD1FC
:1012F00015E0EA6DD8F8001021F4E0711143C8F848
:101300000010E3E7B0F5C00F13D0B0F5000F10D018
:1013100001240FE0386840F40030386009E001989B
:10132000002101F0F7FE03E00098002101F082FFA8
:1013300004467CB126462888C04300052DD4D5F844
:10134000AC00B0F1007F21D00EDCA8B1B0F1807FFD
:1013500010D116E0D5F8A820D9F8001021F46001CA
:101360001143C9F80010E6E7B0F1407F13D0B0F1A7
:10137000806F10D001240FE0386840F400303860EE
:1013800009E00198002101F0C5FE03E0009800216A
:1013900001F050FF044674B126462868C04380011E
:1013A0001FD4E86CD8B110280FD0202812D03028D4
:1013B00015D0012414E0D5F8AC20D9F8001021F0A4
:1013C000E0611143C9F80010E7E7386840F40030E5
:1013D000386004E00198022101F09CFE044674B1DB
:1013E00026462888C043C0042BD4286EB0F5005F81
:1013F00020D00DDCA0B1B0F5805F0FD115E06B48B7
:10140000EA6C2030016821F0300111430160E8E707
:10141000B0F5405F13D0B0F5804F10D001240FE03D
:10142000386840F40030386009E00198002101F08C
:1014300071FE03E00098002101F0FCFE04468CB12F
:1014400026462888C043800429D4686EB0F5403F02
:1014500023D010DC08B3B0F5803F14D0B0F5003FC6
:101460000FD115E02A6ED8F8001021F4E0411143A5
:10147000C8F80010E5E7B0F5802F0ED0B0F5A02F2A
:101480000BD001240AE00198012101F043FE03E0A2
:101490000098012101F0CEFE044694B1264628882A
:1014A000C04340042AD4D5F8B000B0F1405F23D047
:1014B00010DC08B3B0F1805F14D0B0F1005F0FD141
:1014C00015E06A6ED8F8001021F4E0211143C8F845
:1014D0000010E4E7B0F1804F0ED0B0F1A04F0BD078
:1014E00001240AE00198012101F014FE03E00098B4
:1014F000012101F09FFE044674B126462888C043AE
:1015000000041FD4286FD8B1B0F1805F0ED0B0F1C5
:10151000005F10D0012414E0D5F8B020D9F80010F5
:1015200021F0E0411143C9F80010E7E7386840F4C2
:101530000030386004E00198012101F0EBFD044621
:1015400074B126462868C043C0011ED4A86CD0B12F
:1015500001280ED0022811D0032814D0012413E052
:101560002A6FD8F8001021F040511143C8F800103C
:10157000E8E7386840F40030386004E00198022160
:1015800001F0C8FD0446ACB126462868DFF81CB05F
:10159000C043ABF11C0B400252D40548016841F432
:1015A00080710160FFF764FA824611E02C44025812
:1015B00000480258FA48AA6C016821F0030111435F
:1015C0000160E2E7FFF754FAA0EB0A00642835D87F
:1015D000F4480068C005F5D58CBBDFF8C4A3B5F8A6
:1015E000B4100AF1240ADAF8000001F4407100F4A2
:1015F0004070884211D0DAF80010DAF8002021F4A7
:10160000407142F48032CAF80020DAF8002022F457
:101610008032CAF80020CAF80010D5F8B400B0F53E
:10162000807F1AD1FFF724FA029012E0FFF720FA28
:101630000299411A41F2883081420AD90324264690
:101640002878DFF85CA3C0430AF1080AC00721D05C
:101650003CE0DAF800008007E8D5D5F8B410C1F313
:101660000120032858460DD0016821F47C51016007
:10167000B5F8B420DAF80010C2F30B021143CAF82F
:101680000010DDE7C84A036802EA111223F47C5116
:101690001143ECE7E86F182816D005DCA0B1082844
:1016A00008D0102804D10AE020280DD028280BD01B
:1016B00001240AE00198012101F02CFD03E00098CB
:1016C000012101F0B7FD044664B126462878C043E5
:1016D00080071ED4A86F062819D2DFE800F0160C88
:1016E00011161616EA6FDAF8001021F038011143CE
:1016F000CAF80010EAE70198012101F00BFD03E0B0
:101700000098012101F096FD04467CB100E001241F
:1017100026462878C04340071FD4D5F894000628F1
:1017200019D2DFE800F0160C11161616AA6FDAF8B7
:10173000001021F007011143CAF80010E9E70198F1
:10174000012101F0E7FC03E00098012101F072FDA6
:101750000446A4B100E0012426462878C043800650
:101760002BD4D5F89000B0F1405F24D011DC10B339
:10177000B0F1805F15D0B0F1005F10D116E0D5F860
:101780009420D9F8001021F007011143C9F8001086
:10179000E3E7B0F1804F0ED0B0F1A04F0BD00124A1
:1017A0000AE00198002101F0B5FC03E00098022155
:1017B00001F040FD044694B126462878C043400617
:1017C0002BD4D5F89C00B0F5406F24D011DC10B3B9
:1017D000B0F5806F15D0B0F5006F10D116E0D5F8D8
:1017E0009020DAF8001021F0E0411143CAF800100F
:1017F000E3E7B0F5805F0ED0B0F5A05F0BD0012419
:101800000AE00198002101F085FC03E00098022124
:1018100001F010FD044694B126462878C043000626
:101820002BD4D5F8A000B0F5C04F24D011DC10B3F4
:10183000B0F5005F15D0B0F5804F10D116E0D5F8A7
:101840009C20D9F8001021F4E0511143C9F8001090
:10185000E3E7B0F5004F0ED0B0F5204F0BD00124D8
:101860000AE00198002101F055FC03E000980221F4
:1018700001F0E0FC044654B126462878C043000736
:101880001ED4D5F88400B0F5805F0AD00FE0D5F8FB
:10189000A020D9F8001021F460411143C9F80010CC
:1018A000EBE70098022101F0C5FC00B10126D5F854
:1018B0008420DAF8001021F440511143CAF80010D6
:1018C0002878C043C00613D4D5F89800B0F5807FBF
:1018D00005D10098022101F0ADFC00B10126D5F838
:1018E0009820D9F8001021F440711143C9F8001074
:1018F0002868C043000316D4D5F8A40038B1B0F569
:10190000803F09D0B0F5003F0BD001240AE00198D8
:10191000002101F0FFFB03E00098022101F08AFCA6
:1019200004468CB126462868C043400322D4D5F82B
:101930008800B0F5801F11D0B0F5001F13D0B0F5AE
:10194000401F15D0012414E0D5F8A420D9F80010C8
:1019500021F440311143C9F80010E4E7386840F43D
:101960000030386004E00098012101F063FC044677
:101970005CB126462868C043C00323D4286DA8B1B3
:10198000B0F5803F17D001241BE0D5F88820DAF8A5
:10199000001021F440111143CAF80010EAE70000DA
:1019A0004C44025800480258CFFFFF00386840F40A
:1019B0000030386004E00198022101F0ABFB0446DE
:1019C000E4B126462868C043800005D4009802216F
:1019D00001F030FC00B101262868C04380031BD40D
:1019E000D5F88000B0B1B0F5807F0FD0B0F5007FA2
:1019F00010D0B0F5407F0DD001240CE05A482A6D7C
:101A0000016821F4803111430160DBE7386840F45C
:101A100000303860ECB326462868C043C00207D4C3
:101A20006A6FD8F8001021F000411143C8F8001087
:101A30002868C043C00008D4D5F8B820DBF80010EF
:101A400021F480411143CBF800102868C043800284
:101A500007D4EA6ED8F8001021F080711143C8F85D
:101A600000102868C04340000CD4DBF8001021F4BB
:101A70000041CBF80010DBF80010D5F8BC20114372
:101A8000CBF800102868C04308D437486A6D016855
:101A900000E018E021F04051114301602868C04384
:101AA000000208D4D5F88C20DAF8001021F44001A7
:101AB0001143CAF8001028790024C04300F0010047
:101AC00020430AD00FE0D5F88020DAF8001021F486
:101AD00040711143CAF800109EE70198002101F0FF
:101AE00019FB00B106462879C04300F002002043EC
:101AF00005D10198012101F00DFB00B106462879BE
:101B0000C04300F00400204305D10198022101F0F8
:101B100001FB00B106462879C04300F008002043CD
:101B200005D10098002101F085FB00B10646287917
:101B3000C04300F01000204305D10098012101F0BE
:101B400079FB00B106462879C04300F02000044329
:101B500004D10098022101F06DFB00B916B10120FB
:101B6000BDE8FE8F0020FBE74C4402582DE9F05FF2
:101B700004000F467ED0DFF83882D8F8000000F06D
:101B80000F00B8420CD2D8F8001021F00F013943F1
:101B9000C8F80010D8F8000000F00F00B84269D172
:101BA0002078844D40070AD52069296801F070012A
:101BB000884204D9296821F0700101432960207806
:101BC0007C4E361D00070AD56069316801F070014E
:101BD000884204D9316821F07001014331602078D6
:101BE000C0060AD5A069316801F4E061884204D9D1
:101BF000316821F4E061014331602078DFF8B4B14D
:101C000080060BF1080B0CD5E1695846DBF8002083
:101C100002F07002914204D9026822F070020A4375
:101C20000260207880070AD5E068296801F00F017A
:101C3000884204D9296821F00F01014329602078E6
:101C4000C0073ED05B49A2682868183920F470604C
:101C5000104328606068022818D0032819D009684A
:101C6000012819D0490700294ADADFF848A1AAF16A
:101C7000080A00E044E0DAF8002022F007020243FC
:101C8000CAF80020FEF7F4FE814612E009688903D5
:101C9000E9E709688901E6E7C905E4E7FEF7E8FE38
:101CA000A0EB090141F28830814202D90320BDE84E
:101CB000F09F6168DAF8000000F03800B0EBC10F67
:101CC000ECD1207880070AD5E068296801F00F017F
:101CD000884204D2296821F00F0101432960D8F815
:101CE0000010404601F00F01B9420BD9016821F004
:101CF0000F0139430160006800F00F00B84201D0C5
:101D00000120D4E7207840070AD52069296801F02E
:101D10007001884204D2296821F0700101432960D2
:101D2000207800070AD56069316801F070018842A7
:101D300004D2316821F07001014331602078C0067F
:101D40000AD5A069316801F4E061884204D23168A3
:101D500021F4E06101433160207880060CD5E1690F
:101D60005846DBF8002002F07002914204D202686B
:101D700022F070020A43026000F092F90E492A68CC
:101D80002B68C2F3032203F00F038A5CC95C02F0E4
:101D90001F0201F01F01D040084A20FA01F1116032
:101DA0000749086007480068BDE8F05FFEF79CBE81
:101DB00000200052184402588E3D000814000024F0
:101DC00010000024080000242DE9F047704C206822
:101DD00000F00F00072809D2206820F00F00C01D76
:101DE0002060206800F00F0007287CD1FEF740FE3D
:101DF000DFF8A0810546D8F8000040F00100C8F8DF
:101E0000000004E0FEF734FE401B022875D8D8F825
:101E100000004007F6D55F4800275E4E001D1036D3
:101E200003685D4943F08043036037605B480160AD
:101E30005B4801605B480068FEF756FE002852D1FF
:101E4000FEF716FE054641F2883904E0FEF710FE63
:101E5000411B494551D8306810F0380FF6D1FEF7D4
:101E600007FE51490546D8F800000840C8F80000B0
:101E700005E000BFFEF7FCFD401B64283DD8D8F804
:101E800000008003F6D4FEF7F3FD0546D8F8000005
:101E900020F08070C8F8000005E000BFFEF7E8FD04
:101EA000401B022829D8D8F800008001F6D4FEF79C
:101EB000DFFD0546D8F8000020F08060C8F800007B
:101EC00005E000BFFEF7D4FD401B022815D8D8F866
:101ED00000000001F6D4FEF7CBFD0546D8F800005F
:101EE00020F0805001E04EE007E0C8F8000007E075
:101EF000FEF7BEFD401B022802D90320BDE8F08793
:101F0000D8F800008000F3D4224D38462749183510
:101F1000274B2E1D321D2F601E4F264D2837306057
:101F20003E1D1060321D3B60131D35601D1D11608C
:101F30002A1D161D1860331D29601060316018605D
:101F4000D8F800304FF0FF351249124A23F48023AD
:101F5000104ED0316032C8F80030683610603560FD
:101F6000086840F480300860206800F00F000728FF
:101F70000BD9206820F00F00C01D2060206800F001
:101F80000F00072801D00120B8E70020B6E70000C5
:101F900000200052004402580090D003100000249A
:101FA000140000240800002445EDF6FF8002010122
:101FB000000202020000FF0170B5144C3F220260D3
:101FC000124A24680832131D114D04F007044460BE
:101FD00016681C1D06F470668660166806F00F060B
:101FE000C660126802F0700202611A6802F07002A4
:101FF00042611A6802F4E0628261226802F07002B3
:10200000C261286800F00F00086070BD10440258DB
:102010000020005230B500F043F80B4A0B490C4B3E
:1020200015681468C5F3032204F00F048A5C095D87
:1020300002F01F0201F01F01D040064A20FA01F110
:1020400019601060084630BD184402588E3D0008E3
:10205000140000241000002400B5FFF7DBFF054941
:102060000968054AC1F30211515C01F01F01C84023
:1020700000BD00001C4402588E3D000800B5FFF76B
:10208000C9FF05490968054AC1F30221515C01F005
:102090001F01C84000BD00001C4402588E3D0008CE
:1020A000454970B545480968434B103B11F038026B
:1020B00008D00111082A03D0102A0BD0182A0BD0FF
:1020C000084670BD19688906FBD51968C1F3C101BE
:1020D000C84070BD3A4870BD3749374D18310C1DA6
:1020E00024350A68096826682D6802F0030406F0A2
:1020F0000102C1F30511C5F3CC0515FB02F200EE98
:10210000102AB8EE400AE9B32F4ADFED2E0AB7EEE7
:10211000001A6CB1DFED2D1A012C01D0022C43D036
:1021200002EE101A1068F8EE422A81EEA22A1EE092
:102130001C68A40611D51B6801EE901A1168C3F340
:10214000C103F8EE612AD84001EE900AC1F30800FD
:10215000F8EE611A81EEA22A0BE001EE901ADFED93
:102160001C2A00BFF8EE611A106882EEA12AC0F3A3
:10217000080001EE900AF8EE611A40EE201A31EEE6
:10218000810A00E015E022EE000A1068C0F3462044
:10219000401C00EE900AF8EE600A80EE201ABCEEB9
:1021A000C10A10EE100A70BD01EE901ADFED092A87
:1021B000D8E7002070BD0000104402580090D00302
:1021C00040787D0100000039304402580024744AF0
:1021D0000024744C20BCBE4B2DE9F05F04007DD080
:1021E000FF4F2078FE4D1837DFF8F493103DC007FD
:1021F00048D0D9F80000396800F03800102815D010
:10220000182803D101F0030002280FD06068B0F550
:10221000803F12D010B1B0F5A02F18D0286820F45C
:1022200080302860286820F4802009E02868800336
:1022300028D560680028D2D024E0286840F4803097
:102240002860606888B1FEF713FC064609E028683C
:1022500040F480202860F0E7FEF70AFC801B642829
:102260006FD828688003F7D50CE0FEF701FC06461E
:1022700005E000BFFEF7FCFB801B6428F0D828684F
:102280008003F7D4207841F20308D54E0C3E800736
:1022900069D5D9F80000396810F038000ED0182838
:1022A00001D188070AD0E06890B3296821F01901AC
:1022B00001432960FEF7DCFB824631E028684007D5
:1022C00002D5E06800288AD0E168286820F019006B
:1022D00008432860FEF7CCFB824607E0DFE000BF42
:1022E000FEF7C6FBA0EB0A000228B9D82868400711
:1022F000F6D500BFFEF7B6FB40451BD82069402845
:1023000012D0316821F47C3141EA003030602AE09B
:1023100018E000BFFEF7ACFBA0EB0A0002289FD834
:1023200028684007F6D5E5E7306820F47C3040F4B3
:102330000030EBE7207C316821F0FE4141EA00608B
:10234000E4E70DE1286820F001002860FEF790FB2B
:10235000824605E0FEF78CFBA0EB0A0002288DD830
:1023600028684007F6D42078C0065DD5D9F800006B
:10237000DFF86CB2396800F03800ABF1040B0828C4
:1023800010D0182803D101F0030001280AD0E06919
:102390000028286838D040F080002860FEF768FBED
:1023A000824623E02868C00523D5E069802876D1DD
:1023B0001FE0206A202821D0316821F0F84141EA4D
:1023C0008060306030E000BF94F82010DBF800201F
:1023D00022F07C5242EA0161CBF8001024E000BFF9
:1023E000FEF746FBA0EB0A00022898D82868C00533
:1023F000F6D5FEF737FB4045E6D8DAE7306820F03F
:10240000F84040F08040DCE720F080002860FEF7D4
:102410002FFB064605E000BFFEF72AFB801B0228C3
:102420009DD82868C005F7D42078000729D56C48C6
:102430006169643000298046016811D041F00101D2
:102440000160FEF715FB064605E000BFFEF710FB36
:10245000801B0228C9D8D8F800008007F6D510E004
:1024600021F001010160FEF703FB064605E000BF15
:10247000FEF7FEFA801B022872D8D8F80000800709
:10248000F6D42078800623D5A0690028286810D0CB
:1024900040F480502860FEF7EBFA064605E036E18E
:1024A000FEF7E6FA801B02285AD828688004F7D580
:1024B0000EE020F480502860FEF7DAFA064604E0C9
:1024C000FEF7D6FA801B02284AD828688004F7D481
:1024D000207840074FD5DFF80C81D8F8001041F480
:1024E0008071C8F80010FEF7C3FA064605E000BF89
:1024F000FEF7BEFA801B642832D8D8F80000C00569
:10250000F6D5374EA068603601280AD008B10528F4
:1025100013D0306820F001003060306820F00400F3
:1025200002E0306840F001003060A06841F2883A73
:1025300090B1FEF79DFA80460AE0306840F0040052
:102540003060EEE7FEF794FAA0EB0801514507D89A
:1025500030688007F6D50EE0FEF78AFA804607E07D
:1025600084E000BFFEF784FAA0EB080151457DD856
:1025700030688007F6D4606AB0B3DFF86480D9F8B9
:10258000001008F120084FF6F87B08F10409C1F3A8
:10259000C2010329A8F1040A69D00228286820F0A2
:1025A0008070286003D0FEF763FA044684E0FEF7EB
:1025B0005FFA064605E000BFFEF75AFA801B0228C4
:1025C00077D828688001F7D4E26A40F2F33138689E
:1025D00054F8283F884340EA02101843386004E06A
:1025E0001044025800480258B5E0217B4346228936
:1025F0004FF4FE0C208A4FF0FE474902267D521E02
:10260000401EA1F50071C2F308088AB2761E0CEADA
:10261000004042EA08020243504607EA06610A43C4
:102620001A60DAF8002022F00102CAF80020D9F876
:102630000020266A22EA0B0242EAC602C9F80020FC
:10264000DAF80010A26921F00C011143CAF8001059
:102650000168E26921F0020111430160016841F45F
:1026600080310160016841F4003101E021E027E0A0
:102670000160016841F480210160016841F00101BD
:102680000160286840F080702860FEF7F1F9044688
:1026900005E000BFFEF7ECF9001B022809D8286806
:1026A0008001F7D557E000BFFEF7E2F9001B0228D2
:1026B00002D90320BDE8F09F28688001F4D44AE0E5
:1026C00039680128D8F8000021D0A26A01F003037C
:1026D00093421CD1E26AC1F305118A4217D1216BE2
:1026E000C0F30802491E8A4211D1616BC0F3462231
:1026F000491E91420BD1A16BC0F30642491E914283
:1027000005D1E16BC0F30660491E814201D0012072
:10271000D0E7A16C4E46D9F80000C0F3CC0081424E
:1027200019D0DAF80000554620F00100CAF8000080
:10273000FEF79EF94FEA0007FEF79AF9B842FBD080
:10274000A26C306820EA0B0040EAC20030602868C2
:1027500040F0010028600020ACE70000034800685A
:10276000C16821F00101C16070470000F801002438
:1027700070477047704710B5040003D094F83D00CF
:1027800010B107E0012010BD002084F83C00204675
:1027900000F022F8022084F83D002068211D00F09E
:1027A000B1FE012084F8480084F83E0084F83F0020
:1027B00084F8400084F8410084F8420084F8430023
:1027C00084F8440084F8450084F8460084F8470003
:1027D00084F83D00002010BD7047000090F83D10C7
:1027E000012901D001207047174A022180F83D10CD
:1027F0000168CB6843F00103CB600068904214D0BD
:10280000B0F1804F11D0114988420ED01049884252
:102810000BD01049884208D00F49884205D00F4993
:10282000884202D00E49884207D181680D4A114082
:10283000062906D0B1F5803F03D0016841F00101BF
:1028400001600020704700000000014000040040CB
:1028500000080040000C0040000401400018004047
:10286000004001400700010070472DE9F041044697
:1028700000680027C6680569A90713D5B10711D5F7
:10288000FA1E0261012121772068806980072046B5
:1028900002D0FFF7E9FF04E000F08BF8204600F0DB
:1028A00089F82777680716D5700714D522680220A3
:1028B0006FF00401116120772068806910F4407F77
:1028C000204602D0FFF7D0FF04E000F072F8204667
:1028D00000F070F82777280715D5300713D5226840
:1028E00004206FF00801116120772068C06980071B
:1028F000204602D0FFF7B8FF04E000F05AF8204667
:1029000000F058F82777E80616D5F00614D52268A7
:1029100008206FF01001116120772068C06910F461
:10292000407F204602D0FFF79FFF04E000F041F80F
:10293000204600F03FF82777E80708D0F00706D0D8
:1029400021686FF001000861204600F035F8280684
:1029500001D4A80408D5300606D521686FF40250CA
:1029600008612046FFF705FFE80508D5300606D5C3
:1029700021686FF4807008612046FFF7F9FE680651
:1029800008D5700606D521686FF040000861204622
:1029900000F01CF8A8060AD5B00608D521686FF02B
:1029A000200008612046BDE8F041FFF7E3BEBDE826
:1029B000F08170477047000000680349884201D1E8
:1029C000FEF75CB87047000000100040704730B55B
:1029D00090F88410012918D0012280F88420242145
:1029E000C0F888100022202401680B680D6823F0CD
:1029F000005325F001050D60426601680B60C0F8C8
:102A0000884080F88420104630BD022030BD70B56B
:102A1000044690F8840001281DD0012284F8842007
:102A20002420C4F8880020680568026822F00102AA
:102A300002602068826822F060620A438260204659
:102A400000F0C6FD2268202100201560C4F888101F
:102A500084F8840070BD022070BD70B5044690F803
:102A6000840001281DD0012284F884202420C4F889
:102A7000880020680568026822F001020260206870
:102A8000826822F060420A438260204600F0A0FD86
:102A90002268202100201560C4F8881084F8840082
:102AA00070BD022070BD10B5040003D0D4F88800BA
:102AB00010B107E0012010BD002084F884002046FA
:102AC00000F026F82420C4F888002068016821F06E
:102AD00001010160A06A10B1204600F09BFD204674
:102AE00000F07CFE0128E6D02068416821F4904186
:102AF00041602068816821F02A01816020680168B6
:102B000041F0010101602046BDE8104000F0E6BD43
:102B100070B5B6B00446142130A8FDF7B7FCC0214B
:102B20006846FDF7B3FC2149206888423CD100206B
:102B30001E9002210446CDE900106846FEF740FBD6
:102B400008B1FDF762FE1A48016841F48011016086
:102B5000006800F48010359015480838016841F08D
:102B600004010160016801F004013591016841F040
:102B70000801016000680225082600F00800359071
:102B8000E8023090CDE931540A4830A9CDE9334606
:102B9000FDF74CFE04203090CDE93154064830A9B1
:102BA000CDE93346FDF742FE36B070BD005000401F
:102BB000E844025800080258000C02582DE9F84376
:102BC0000446D0F88800984616460D46202802D0C4
:102BD0000220BDE8F883A5B19EB10021C4F8901091
:102BE0002120C4F888001834FDF742FF814654F8CC
:102BF000100CA687E6872027183CB0F5805F02D02E
:102C000003E00120E5E7206910B12E46002510E021
:102C100000260EE08021204600F0B6FFC0B9DEB1EC
:102C200016F8010B21688862B4F85600401EA4F81B
:102C30005600B4F856004B464FF00002CDF8008025
:102C40000028E7D14FF04001204600F09DFF48B139
:102C5000C4F888700320BCE735F8020B2168C0F384
:102C60000800E0E7C4F888700020B2E7FEE7000043
:102C70007FB500240094019402940394FDF7A8FF0B
:102C800007208DF808008DF80C4001258DF80940CB
:102C900003268DF80D40684624498DF800508DF8C4
:102CA0000A408DF80E408DF8014001918DF80B60BF
:102CB0008DF80F50FDF75EFF1D480F218DF80810AD
:102CC0008DF80E508DF80150019068468DF809403E
:102CD0008DF80F40FDF74EFF02208DF80D501222A7
:102CE0008DF801004FF01051684601918DF80820D1
:102CF0008DF80F50FDF73EFF8DF80C4016218DF832
:102D000008108DF80D400B488DF80B608DF80E50B3
:102D10008DF80160019068468DF80F508DF80A40DB
:102D2000FDF728FF0420FDF761FF7FBD00000430A0
:102D300000400430002000902DE9F04F87B01421AE
:102D40006846FDF7A3FB4A48016841F010010160A5
:102D5000016801F010010591016841F00201016074
:102D6000016801F002010591016841F00401016070
:102D7000016801F004010591016841F00101016061
:102D8000016801F001010591016841F0080101604D
:102D9000016801F008010591016841F0200101601E
:102DA000016801F020010591016841F08001016096
:102DB000016801F080010591016841F04001016066
:102DC00000680022DFF8AC90012100F0400005907F
:102DD0004846FDF741FEDFF8A0A04FF480760022C0
:102DE00031465046FDF738FEDFF890B04FF20F073E
:102DF000002239465846FDF72FFE4FF484682048DC
:102E000000224146FDF728FE1E4800221F21FDF743
:102E100023FE00246946012500954846CDE901546A
:102E20000394FDF703FD00966946CDE90154504631
:102E30000394FDF7FBFC00976946CDE90154584621
:102E40000394FDF7F3FCCDF800806946CDE9015409
:102E50000B480394FDF7EAFC1F200090CDE90154D4
:102E6000084869460394FDF7E1FC07B0BDE8F08F20
:102E7000E04402580010025800040258001402589E
:102E8000001C0258001802582DE9F0410C4800219E
:102E900001230A4A20241E02C0E90561C1611025F0
:102EA0001727016280E8BC00FDF72AFF002803D045
:102EB000BDE8F041FDF7A9BCBDE8F081005000522B
:102EC000180000241848002110B5164C0C224FF4AD
:102ED000E1330460C0E90131C160C0E904128161DD
:102EE000C161016241628162FFF7DDFD08B1FDF75A
:102EF0008CFC0D480021FFF7B0FD08B1FDF785FC03
:102F000009480021FFF783FD08B1FDF77EFC064864
:102F1000FFF75DFD002803D0BDE81040FDF775BC4C
:102F200010BD00000050004064010024FEE7FEE7F1
:102F300070472DE9F0434B6A4FF040662BB1B24227
:102F400003D004688B6A5B1E236100248D690B6AC1
:102F5000002D68D0ABB303688D68DD61CD69EDB13C
:102F6000D1E90B38D1F824C04C6B8F8A43EA0803AF
:102F700044EA0C0423430C6A43EA8743D1E9037C07
:102F800043EA0C0323438C693B430F682B432343E1
:102F90002DE0006849688161BDE8F083D1E90B3C10
:102FA0004F6A4D6B8E8A43EA0C033D430F692B43F6
:102FB0000D6A43EA86438E693B4309682B433343DA
:102FC0002AE0FFE7CB69B3F1000917D0D1E90B384C
:102FD0004F6A4C6BB1F814C043EA08033C430F68D6
:102FE0002343CC6843EA8C4323434C4635E00468D2
:102FF0003B431343B2426361CBD1CDE7D1E90B38F8
:103000004F6A4E6BB1F814C043EA08033E430968A7
:10301000334343EA8C4332E005680B4313436B614F
:1030200000688461B8E763B303688D68DD61CD69CA
:10303000B5B1D1E90B38D1F824C04F6B8C8A43EA83
:10304000080347EA0C073B430F6A43EA8443D1E98C
:10305000034C43EA0C033B438F6923432B43C6E7EE
:10306000D1E90B3C4F6A4D6B8E8A43EA0C033D431A
:103070000F692B430D6A896943EA86433B432B431F
:10308000CAE7CD6985B1D1E90B384F6A4C6BB1F80D
:1030900014C043EA08033C432343CC6843EA8C430F
:1030A000234304682B43A4E74B6A002BA5D0D1E946
:1030B0000B5C4F6B898A06681F4345EA0C053D434C
:1030C00045EA814111437161AAE72DE9F041984633
:1030D00016460F460446069D08E0681C06D0FDF71C
:1030E000C7FCA0EB0800A8420AD84DB12068806850
:1030F000384000D00120B042EFD10020BDE8F0817F
:10310000042084F84100606C40F0010060640120FC
:10311000F4E700002DE9F047454D044689464FF09D
:10312000000A2868C04380070AD0414E283E306814
:1031300020F080603060FDF79BFC0746B04608E059
:103140000120BDE8F08700BFFDF792FCC01B0228FC
:1031500067D8D8F800000001F6D4206829684FF439
:10316000FE0721F47C313E0241EA00302860207ADB
:10317000A389B4F804C040022D4D2D495B1E227C6A
:10318000ACF1010C1035091DA0F5007080B2521E83
:10319000CCF3080C07EA034340EA0C00184306EAA4
:1031A0000262104328600868626920F0C000104382
:1031B00008600A68A06922F0200202430A60281D04
:1031C0000A6822F010020A6002684FF6F873E46998
:1031D0009A4342EAC40202600868B9F1000F40F065
:1031E00010020A6011D00868B9F1010F11D040F443
:1031F00000100860D8F80000444640F08060C8F82D
:103200000000FDF735FC05460DE0086840F400209D
:10321000EFE740F48010ECE7FDF72AFC401B0228A2
:1032200001D903208DE720680001F5D5504688E7D5
:10323000284402582DE9F047454D044689464FF091
:10324000000A2868C04380070AD0414E283E3068F3
:1032500020F080503060FDF70BFC0746B04608E0D8
:103260000120BDE8F08700BFFDF702FCC01B02286B
:1032700067D8D8F800008000F6D4208829684FF479
:10328000FE0721F07C713E0241EA00502860207A5E
:10329000A389B4F804C040022D4D2D495B1E227C49
:1032A000ACF1010C1835091DA0F5007080B2521E5A
:1032B000CCF3080C07EA034340EA0C00184306EA83
:1032C0000262104328600868626920F4406010437D
:1032D00008600A68A06922F4007202430A60281D8F
:1032E0000A6822F480720A6002684FF6F873E46993
:1032F0009A4342EAC40202600868B9F1000F40F440
:1033000080720A6011D00868B9F1010F11D040F045
:1033100080700860D8F80000444640F08050C8F83B
:103320000000FDF7A5FB05460DE0086840F48000AD
:10333000EFE740F40000ECE7FDF79AFB401B0228A2
:1033400001D903208DE720688000F5D5504688E735
:10335000284402587047704770B59CB04C216846AD
:10336000FDF794F8202113A8FDF790F80220FDF74F
:103370009DFC214800242149026842F44042026039
:1033800002680A6842F001020A60096801F001015E
:103390001B9101688904FCD50DF1280C02200990CD
:1033A0000521C0228CE80700C6030F9008250D9068
:1033B00001230E90CDE91054CDE9003668461294F1
:1033C000FEF70AFF08B172B6FEE740201A903F21CF
:1033D0000301CDE916500322CDE9180313AB13A85E
:1033E00083E816000421FEF7C1FB002801D072B665
:1033F000FEE71CB070BD0000184802582C040058AD
:103400003348F0B5334A016841F470010160106837
:1034100000F00F00072804D2106820F00F00C01D34
:1034200010602D4900202C4C10340B682B4D43F0BC
:1034300001030B6020600B682B400B60136803F0E6
:103440000F03072B04D9136823F00F03DB1D136050
:10345000214C234A1834234B261D371D20601E4C57
:10346000214D28343060261D3860371D23603B1DF8
:1034700035601C1D3A60251D2E1D1860331D22600D
:103480002860326018600A68134B184C22F48022BE
:1034900060330A60186020686FF30F00B0F1005FBE
:1034A00003D213490120C1F808010B48D430016848
:1034B000C9040BD4026843F2D2010E4B42F480528D
:1034C00002601960016821F480510160F0BD0000C4
:1034D00088ED00E000200052004402587FEDF6EA3B
:1034E00080020101000202020000FF010010005CE6
:1034F00000800051004000520148FFF7B6B90000BB
:10350000F80100242DE9F047294B4FF0804A294D5E
:1035100002689842284E294F294C09D0504507D0BF
:10352000A84205D0B04203D0B84201D0A04205D194
:10353000D1F804C022F070024CEA0202DFF884C025
:10354000DFF884809842DFF884900FD050450DD08A
:10355000A8420BD0B04209D0B84207D0A04205D053
:10356000604503D0404501D0484503D1CD6822F4E1
:1035700040722A438E684D6922F08002C6620E684E
:103580002A439842866207D0A04205D0604503D006
:10359000404501D0484501D1096901630368012113
:1035A00043F00403036041610260BDE8F08700005E
:1035B000000001400004004000080040000C0040F2
:1035C0000004014000400140004401400048014027
:1035D00030B5416EB9B101680D4B03F108048A683A
:1035E0008968C2F34262490F5D5C615C2D01B5FBE5
:1035F000F1F1A0F86A10995CA25C0901B1FBF2F14B
:10360000A0F8681030BD0121A0F86A10F8E70000AA
:103610007E3D000890F82810090706D50168836BE5
:103620004A6822F400421A434A6090F82810C907F9
:1036300006D00168C36A4A6822F400321A434A601D
:1036400090F82810890706D50168036B4A6822F4B0
:1036500080321A434A6090F82810490706D501685D
:10366000436B4A6822F480221A434A6090F828107B
:10367000C90606D50168C36B8A6822F480521A43D2
:103680008A6090F82810890606D50168036C8A685C
:1036900022F400521A438A6090F82810490611D586
:1036A0000168436C4A6822F480121A434A60416CF4
:1036B000B1F5801F06D10168836C4A6822F4C0020C
:1036C0001A434A6090F82810090606D50168C26CB2
:1036D000486820F400201043486070472DE9F84303
:1036E00000250446C0F89050FDF7C2F980462068D6
:1036F00020266FF07E470068000713D5002243465E
:1037000031042046009700F03FFA58B1216851E893
:10371000000F20F0800041E80002002AF6D1C4F832
:10372000886021E020680068400722D500224346D7
:103730004FF480012046009700F026FAC8B12068B7
:1037400050E8001F21F4907140E80012002AF6D1E1
:103750002068083050E8001F21F0010140E8001205
:10376000002AF5D1C4F88C60032084F88450BDE8A9
:10377000F883C4F88860C4F88C60E566256700208B
:1037800084F88450F3E7000010B5026852E8001F87
:1037900021F4907142E80013002BF6D10E4B026821
:1037A000083252E8001F194042E80014002CF6D1FC
:1037B000C16E012908D1026852E8001F21F01001F2
:1037C00042E80013002BF6D100212022C0F88C2003
:1037D000C166416710BD0000FEFFFFEF2DE9F04319
:1037E00004468068D84E87B0D84B2168D4E90427B6
:1037F000D4F81CC010430A68002547EA0C07384378
:10380000324002430A602068E268416821F4405176
:10381000114341602268A1699A4201D0206A0143A4
:103820009768DFF82CC3CB4ECB4807EA0C070F4351
:1038300097602168676ACA6A22F00F023A43CA6237
:103840002268B2420ED1006800F03800182873D008
:1038500047DCB8B3082879D010286FD178E0282841
:103860007ED17BE0BD498A4209D1006800F00700A3
:10387000062875D2DFE800F0546A6C6E7072B849A1
:103880008A4209D1006800F00700062868D2DFE804
:1038900000F0475D5F616365B2498A4209D1006803
:1038A00000F0070006285BD2DFE800F03A505254DF
:1038B0005658AD498A420BD1006800F0070006282F
:1038C0004ED200E010E0DFE800F02B4143454749CD
:1038D000A6498A420AD1006800F03800182839D079
:1038E000B7DD2028BBD13CE001203AE0A0498A4264
:1038F00009D1006800F00700062831D2DFE800F0A7
:103900001026282A2C2E9B498A420BD1006800F0F1
:103910000700062824D2DFE800F003191B1D1F2131
:1039200000201EE09A421BD18B48001D006800F069
:103930000700062814D202E00CE007E010E0DFE800
:1039400000F0030507090B0D02200AE0042008E03F
:10395000082006E0102004E0202002E0402000E0E3
:1039600080208549DFF814829A42854A4FF400434B
:103970004FEA21174FF000064ED110281AD006DC6E
:10398000022809D004280BD008287CD10DE020287B
:103990003ED0402877D13DE0FDF7BCFA014610E06B
:1039A0006846FDF7C9FA01990BE003A8FDF766FB2D
:1039B000049906E01068800605D51068C0F3C100C0
:1039C000C140002970D0606A676838F8102007EBA2
:1039D0004703B1FBF2F0834255D8B0EB073F52D812
:1039E000002308461946FCF7CEFC02467808130E61
:1039F000120243EA012110183A4671410023FCF7F4
:103A0000C2FC604AA0F5407191423CD821688FE029
:103A10003946D8E71946D6E7D4F81CC04FF6EF79F7
:103A20009C4546D1082819D005DC58B101280CD096
:103A3000042875D10DE0102815D0202835D0402855
:103A40006ED134E0FEF708FB01E0FEF717FB0146FC
:103A500010E06846FDF770FA01990BE003A8FDF746
:103A60000DFB049906E01068800604D51068C0F3C9
:103A7000C100C140C1B1636A606838F81330B1FB5E
:103A8000F3F1490000E04BE001EB5001B1FBF0F035
:103A9000A0F11001494543D84FF6F0732168C0F3F7
:103AA00042021840104343E043E03946E3E7194639
:103AB000E1E7082819D005DC58B101280CD004280A
:103AC0002ED10DE0102815D020282BD0402827D14A
:103AD0002AE0FEF7C1FA01E0FEF7D0FA014610E055
:103AE0006846FDF729FA01990BE003A8FDF7C6FA2D
:103AF000049906E01068800604D51068C0F3C10080
:103B0000C140B1B1636A606838F81330B1FBF3F1BA
:103B100001EB5001B1FBF0F0A0F11001494505D9CE
:103B2000012506E03946EDE71946EBE7216880B24A
:103B3000C8600120A4F86A00A4F8680028466667F7
:103B4000A66707B0BDE8F083F369FFCF000C00580B
:103B5000FFF4FF110010014054440258004400409B
:103B600000480040004C004000500040001401405C
:103B700000780040007C00400090D003663D0008C3
:103B800000440258FFFC0F002DE9F0479946174604
:103B90000D460446089E4FF0000833E0701C31D0FB
:103BA000FCF766FFA0EB0900B04218D8BEB1206850
:103BB0000168490726D5802D24D0402D22D0C16927
:103BC000C94309070DD4082505622046FFF7DCFD2F
:103BD000C4F89050012084F88480BDE8F087032069
:103BE000FBE7C069C04300050CD421684FF40060B6
:103BF00008622046FFF7C8FD2021C4F8901084F821
:103C00008480ECE72068C06935EA000004D0002019
:103C1000B842C3D00020E0E70120F9E7FEE709073A
:103C200000284FEA116104DB00F1E02080F8001465
:103C3000704700F00F0000F1E02080F8141D70477D
:103C400030380A2801D201207047002070477047A1
:103C500038B564230446012269468DF80000024805
:103C6000FEF7ACFF204638BD6401002408B5FEF71E
:103C7000FFFFFCF785FDFCF709FFFFF76DFBFFF782
:103C80005BF8FFF701F9FFF71DF91AA0FCF7F2FB4B
:103C9000FCF74CFD20B11DA0FCF7ECFB72B6FEE773
:103CA00022A0FCF7E7FB2C4800240090012080F3C1
:103CB0001088FEF789F8FEF751FD4FF0E022002052
:103CC000411E106150619061A00000F1E020641C71
:103CD000082CC0F88011C0F88012F5D30098009924
:103CE0004068096881F30888002181F314888047BF
:103CF000FEE70000426F6F746C6F61646572205361
:103D00007461727465642E2E2E0D0A005153504951
:103D1000204D656D6F7279204D617070656420462D
:103D200061696C6564210D0A00000000515350491F
:103D3000204D617070656420537563636573732EE5
:103D4000204A756D70696E6720746F204150502E47
:103D50002E2E0D0A00000000002000904FF0407051
:103D6000E1EE100A7047010002000400060008009E
:103D70000A000C001000200040008000000101013A
:103D8000010307010000080402040801010100000A
:103D900000000102030401020304060708090400ED
:103DA00000080000000000000002000100001000F8
:103DB000D03D00080000002418000000D4020008D4
:103DC000E83D00081800002490420000F0020008BE
:103DD00000000000010000001000000000000000D2
:083DE0000090D0030090D00315
:040000050800029954
:00000001FF
